:100000000C9434000C9451000C9451000C94510049
:100010000C94CC040C9451000C9451000C9451009D
:100020000C9451000C9451000C9451000C9451000C
:100030000C9451000C9451000C9451000C945100FC
:100040000C940B050C9451000C9451000C9451002D
:100050000C9451000C9451000C9451000C945100DC
:100060000C9451000C94510011241FBECFEFD8E026
:10007000DEBFCDBF11E0A0E0B1E0E0EEFAE002C0EB
:1000800005900D92A431B107D9F711E0A4E1B1E0D8
:1000900001C01D92A534B107E1F70E9453000C94F2
:1000A0006E050C9400000F931F93CF93DF930E9473
:1000B00057010E941B050E94C504C0E0D0E00CE27D
:1000C00011E0CE010E942505CE010E942505CE013A
:1000D0000E942505CE010E942505CE010E9425051E
:1000E000CE010E942505CE010E942505CE010E9469
:1000F0002505219688EE93E0F8013197F1F70197F5
:10010000D9F7DFCF559A5D98089587FF0BC05D9AA8
:1001100000000000000000000000000000000000DF
:100120005D980AC05D9A0000000000005D98000024
:10013000000000000000000086FF0BC05D9A000078
:1001400000000000000000000000000000005D98BA
:100150000AC05D9A0000000000005D9800000000E9
:1001600000000000000085FF0BC05D9A0000000049
:100170000000000000000000000000005D980AC0C0
:100180005D9A0000000000005D9800000000000083
:100190000000000084FF0BC05D9A0000000000001A
:1001A000000000000000000000005D980AC05D9A99
:1001B0000000000000005D9800000000000000004A
:1001C000000083FF0BC05D9A0000000000000000EB
:1001D00000000000000000005D980AC05D9A000069
:1001E000000000005D98000000000000000000001A
:1001F00082FF0BC05D9A00000000000000000000BC
:100200000000000000005D980AC05D9A0000000038
:1002100000005D980000000000000000000081FF69
:100220000BC05D9A0000000000000000000000000C
:10023000000000005D980AC05D9A00000000000008
:100240005D980000000000000000000080FF0BC06F
:100250005D9A0000000000000000000000000000A7
:1002600000005D9808955D9A0000000000005D9810
:100270000000000000000000000008950F931F938D
:10028000182F862F042F0E948500812F0E94850041
:10029000802F0E9485001F910F91089580E090E0CB
:1002A000000001962CE980349207D1F70895559A01
:1002B0005D9880E090E0000001962CE98034920780
:1002C000D1F70895109214011092150181E08093E6
:1002D000160180E090E0FC01EC5EFE4F1382019677
:1002E00080329105C1F710923701E8E3F1E01192F5
:1002F00081E0E034F807D9F71082089514BC15BCEA
:1003000010926E008FEF85BBE8E6F0E0808182609E
:100310008083ECE6F0E0808180648083D99A7894D1
:1003200008958FEF85BBEEE6F0E0108288EC86BD85
:1003300084E085BD81E085BB8083089510926E00C6
:1003400015BC16BC0895549A5C9A3E98469A089536
:100350005C9A08955C980895813011F45C9A089530
:100360005C98089586B190E026E0969587952A9549
:10037000E1F7817008959C0116BC81E085BD86B5CA
:100380008233E8F316BC86B590E082179307D8F362
:1003900015BC089580910E0190910F010E94BB0140
:1003A000089580911001909111010E94BB01089560
:1003B00080911201909113010E94BB010895DF9278
:1003C000EF92FF920F931F93DF93CF93CDB7DEB7DA
:1003D0002A970FB6F894DEBF0FBECDBFFE0131964F
:1003E0009AE0DF011D929A95E9F791E09A87FE0164
:1003F000329620E030E0482F50E061E0CA01022E42
:1004000002C0959587950A94E2F780FF02C0608349
:1004100001C010822F5F3F4F31962830310571F7B0
:10042000DFB6F8948E010F5F1F4F3BE0E32EF12CF7
:10043000EC0EFD1EF8018081813011F45C9A01C040
:100440005C980E94CA010F5F1F4F0E151F0591F7A0
:10045000DFBE2A960FB6F894DEBF0FBECDBFCF9198
:10046000DF911F910F91FF90EF90DF900895FF9221
:100470000F931F93369B21C082E017C00E94D101C9
:1004800036990068173009F006951F5F1830B1F7EC
:100490000E94D10186B1F6FC07C086FF05C000931B
:1004A00015011092140103C081E080931401809122
:1004B00015011F910F91FF9008950E94D801F6B089
:1004C00000E010E0DBCF8091150108951092150136
:1004D0000895809315010895BF92CF92DF92EF9215
:1004E000FF920F931F93CF93DF937B018C018FEFCC
:1004F000E816F1040105110509F030F4C8E0D0E078
:1005000062E0C62ED12C14C080E0E81680E0F80628
:1005100081E0080780E0180730F0C0E2D0E058E042
:10052000C52ED12C05C0C0E1D0E044E0C42ED12CB2
:1005300080E30E94DF0188E70E94DF01BB2417C02F
:100540002497D801C7010C2E04C0B695A79597959E
:1005500087950A94D2F790E08F7090708A30910559
:1005600010F0C79601C0C0960E94DF01B3948B2D96
:1005700090E08C159D0520F3DF91CF911F910F9195
:10058000FF90EF90DF90CF90BF900895AF92BF9211
:10059000CF92DF92EF92FF920F931F93CF93DF934F
:1005A0007B018C016F3F71058105910509F018F4FD
:1005B000F7E0DF2E0DC0603030E0730731E08307D5
:1005C00030E0930718F0EFE1DE2E02C07FE0D72E77
:1005D00080E30E94DF0182E60E94DF01C0E0D0E0FC
:1005E000CD2CDD2456010894A11CB11CC6018C1B26
:1005F0009D0BA801970104C05695479537952795FF
:100600008A95D2F7DA01C90181709070892B11F0B7
:1006100081E301C080E30E94DF012196CA15DB055A
:1006200029F7DF91CF911F910F91FF90EF90DF900D
:10063000CF90BF90AF9008958DE00E94DF018AE0D7
:100640000E94DF01089580E20E94DF0108958CE29C
:100650000E94DF0108951F93CF93DF93EC0110E018
:1006600003C00E94DF011F5FFE01E10FF11D8081C9
:100670008823B9F7DF91CF911F9108950E942B0332
:100680000E941C0308950E942B030E9423030895D7
:100690000E942B030E9427030895BF92CF92DF92FE
:1006A000EF92FF920F931F936B017C01611571050F
:1006B0008105910531F41092380181E08093400169
:1006C00023C0BB240B2D10E00C5E1E4FC701B601EA
:1006D0002AE030E040E050E00E944C05F80164A3BD
:1006E000C701B6012AE030E040E050E00E944C052E
:1006F000C901DA016C017D01B394C114D104E10494
:10070000F10401F7B09240011F910F91FF90EF901B
:10071000DF90CF90BF9008951F931091400109C0C2
:100720001150E12FF0E0EC5EFE4F84A1805D0E944D
:10073000DF011123A9F71F910895EF92FF920F9304
:100740001F937B018C0197FF0BC08DE20E94DF019C
:1007500010950095F094E094E11CF11C011D111D11
:10076000C801B7010E944D030E948C031F910F9195
:10077000FF90EF9008950E949D030E941C0308952E
:100780000E949D030E94230308950E949D0380E020
:1007900091E00E942B0308950E946C020E941C03AA
:1007A00008950E946C020E94230308950E946C0227
:1007B00080E091E00E942B0308950E94C6020E94EF
:1007C0001C0308950E94C6020E94230308950E94FC
:1007D000C60280E091E00E942B030895EF92FF9201
:1007E0000F931F937A018B010E942B030E94230316
:1007F000C801B7010E94BB031F910F91FF90EF90BA
:100800000895EF92FF920F931F937A018B010E943C
:100810002B030E942303C801B7010E94C0031F914C
:100820000F91FF90EF900895EF92FF920F931F9317
:100830007A018B010E942B030E942303C801B70198
:100840000E94C5031F910F91FF90EF900895EF92C2
:10085000FF920F931F937A018B010E942B030E943A
:100860002303C801B7010E94CC031F910F91FF9091
:10087000EF900895EF92FF920F931F937A018B01EF
:100880000E942B030E942303C801B7010E94D103D9
:100890001F910F91FF90EF900895EF92FF920F93A9
:1008A0001F937A018B010E942B030E942303C8012E
:1008B000B7010E94D6031F910F91FF90EF9008950A
:1008C000EF92FF920F931F937A018B010E942B03EB
:1008D0000E942303C801B7010E94DD031F910F91FD
:1008E000FF90EF900895EF92FF920F931F937A017C
:1008F0008B010E942B030E942303C801B7010E94B1
:10090000E2031F910F91FF90EF900895EF92FF92F5
:100910000F931F937A018B010E942B030E942303E4
:10092000C801B7010E94E7031F910F91FF90EF905C
:100930000895E4E1F1E0E80FF11D838108958091CD
:100940003701089580E090E0FC01EC5EFE4F1382D9
:10095000019680329105C1F7109237010895809178
:100960001601089580911601882311F090E008C0C7
:100970008091370190E0882309F491E081E0982785
:10098000892F08958091370108950E9462010E9485
:100990007E010E94A30108951F920F920FB60F923D
:1009A00011242F933F934F935F936F937F938F9374
:1009B0009F93AF93BF93EF93FF9381E080931601D2
:1009C0000E943702982F80911401882399F4E091B6
:1009D0003701F0E0EC5EFE4F9383809137018F5F2B
:1009E0008093370180913701813210F010923701E6
:1009F0000E949101FF91EF91BF91AF919F918F91D3
:100A00007F916F915F914F913F912F910F900FBE0A
:100A10000F901F9018951F920F920FB60F921124EE
:100A200010926E0015BC16BC109216010F900FBEEE
:100A30000F901F9018951092410181E08093420120
:100A4000109243011092440108950F931F93CF9386
:100A5000DF93C7E0D0E0082F10E0C8010C2E02C0E1
:100A6000959587950A94E2F780FF07C08091410130
:100A7000609142014091430103C080E060E040E0AA
:100A80000E943E0121978FEFCF3FD80731F7DF91CA
:100A9000CF911F910F910895A1E21A2EAA1BBB1BA3
:100AA000FD010DC0AA1FBB1FEE1FFF1FA217B3073A
:100AB000E407F50720F0A21BB30BE40BF50B661F50
:100AC000771F881F991F1A9469F760957095809514
:100AD00090959B01AC01BD01CF010895F894FFCF23
:100AE0002C00CE049C044E024E023A02E600C800DE
:040AF000D20014001C
:00000001FF
