:100000000C9434000C9451000C9451000C94510049
:100010000C94CB090C9451000C9451000C94510099
:100020000C9451000C9451000C9451000C9451000C
:100030000C9451000C9451000C9451000C945100FC
:100040000C940A0A0C9451000C9451000C94510029
:100050000C9451000C9451000C9451000C945100DC
:100060000C9451000C94510011241FBECFEFD8E026
:10007000DEBFCDBF11E0A0E0B1E0E4E9F4E102C0F1
:1000800005900D92A233B107D9F711E0A2E3B1E0D8
:1000900001C01D92A23BB107E1F70E9453000C94EE
:1000A000480A0C940000CF93DF930E943C010E9409
:1000B0003B060E94C409CCE2D1E00E945D0288EEBA
:1000C00093E0FE013197F1F70197D9F7F6CF559AF2
:1000D0005D98089587FF0BC05D9A00000000000046
:1000E000000000000000000000005D980AC05D9A5A
:1000F0000000000000005D9800000000000000000B
:10010000000086FF0BC05D9A0000000000000000A8
:1001100000000000000000005D980AC05D9A000029
:10012000000000005D9800000000000000000000DA
:1001300085FF0BC05D9A0000000000000000000079
:100140000000000000005D980AC05D9A00000000F9
:1001500000005D980000000000000000000084FF27
:100160000BC05D9A000000000000000000000000CD
:10017000000000005D980AC05D9A000000000000C9
:100180005D980000000000000000000083FF0BC02D
:100190005D9A000000000000000000000000000068
:1001A00000005D980AC05D9A0000000000005D98A4
:1001B0000000000000000000000082FF0BC05D9AFC
:1001C000000000000000000000000000000000002F
:1001D0005D980AC05D9A0000000000005D98000074
:1001E000000000000000000081FF0BC05D9A0000CD
:1001F00000000000000000000000000000005D980A
:100200000AC05D9A0000000000005D980000000038
:1002100000000000000080FF0BC05D9A000000009D
:100220000000000000000000000000005D9808953C
:100230005D9A0000000000005D98000000000000D2
:100240000000000008950F931F93182F862F042F8E
:100250000E946A00812F0E946A00802F0E946A001B
:100260001F910F91089580E090E0000001962CE925
:1002700080349207D1F70895559A5D980895E5E482
:10028000F1E0119281E0E538F807D9F70895DF929F
:10029000EF92FF920F931F93CF93DF93D82EE62E0A
:1002A000F42EC0E0D0E000E315E78D2D6E2D4F2D2C
:1002B0000E942301C8010197F1F72196C034D105AE
:1002C000A1F7DF91CF911F910F91FF90EF90DF90F9
:1002D0000895CF92DF92FF920F931F93CF93DF93F6
:1002E000F82E062F142F80934401861710F4609384
:1002F000440180914401811710F410934401C0E03F
:10030000D0E080E3C82E85E7D82E8F2D602F412FB7
:100310000E942301C6010197F1F72196C034D1054F
:10032000A1F7DF91CF911F910F91FF90DF90CF90B8
:1003300008958F929F92AF92BF92CF92DF92EF92E9
:10034000FF920F931F93CF93DF9380913C01909185
:100350003D010097D1F48FEF90E090933F0180939F
:100360003E011092410110924001109243011092FF
:10037000420100E010E0EE24FF2420E4822E912CC4
:1003800098EBA92E9BE0B92E37C08130910539F446
:100390008FEF90E090933F0180933E0109C082303F
:1003A000910559F410923F0110923E018FEF90E0B9
:1003B0009093410180934001D8CF8330910559F447
:1003C00010923F0110923E018FEF90E09093410117
:1003D000809340010CC0049761F610923F01109287
:1003E0003E0110924101109240018FEF90E09093F6
:1003F000430180934201BDCF6401C01AD10AC0E01D
:10040000D0E006C080E060E040E00E942301219639
:10041000C017D107B8F380913E016091400140912F
:1004200042010E94230180913E0160914001409170
:1004300042010E94230180913E0160914001409160
:1004400042010E942301C0E0D0E006C080E060E0ED
:1004500040E00E9423012196CC15DD05B8F30F5F23
:100460001F4F0034110510F000E010E0C5010197A6
:10047000F1F70894E11CF11C80E4E816F10409F09E
:10048000BBCF80913C0190913D01019690933D013D
:1004900080933C01059720F010923D0110923C01A1
:1004A000DF91CF911F910F91FF90EF90DF90CF9050
:1004B000BF90AF909F908F900895CF93DF93C0E04F
:1004C000D0E08091360160913701409138010E945F
:1004D00023012196C034D105A1F7809139018823E9
:1004E00031F4809136018F3F59F08F5F07C0813022
:1004F00039F480913601882319F0815080933601B8
:1005000080913A01882331F4809137018F3F59F06F
:100510008F5F07C0813039F480913701882319F04B
:1005200081508093370180913B01882331F4809181
:1005300038018F3F59F08F5F07C0813039F48091C7
:100540003801882319F08150809338018091360159
:100550008F3FD9F480913701882351F4809138017D
:10056000882381F582E08093390110923A0138C0E6
:100570008F3F41F580913801882321F581E08093F8
:10058000390182E080933A012BC08823C9F480911D
:1005900037018F3F39F580913801882341F482E09B
:1005A0008093390180933A0110923B011BC08F3F29
:1005B000C9F41092390181E080933A0182E010C0C1
:1005C0008F3F81F480913701882361F48091380155
:1005D0008F3F41F482E08093390180933A0181E0BA
:1005E00080933B01DF91CF9108952F923F924F92DC
:1005F0005F926F927F928F929F92AF92BF92CF92B3
:10060000DF92EF92FF920F931F93CF93DF93D82E39
:10061000E62EF42E290180934401861710F460938E
:100620004401809144018F1510F4F092440100E0E0
:1006300010E044E4242E41E0342E240C351C6D2CB3
:1006400077248E2C9924AF2CBB2430E6C32E31C0E6
:100650008981882321F08D2D6E2D4F2D03C080E0E0
:1006600060E040E00E9423012196C215D30581F786
:10067000202F6016710608F4262D602F8016910633
:1006800008F4682D402FA016B10608F44A2D822FD9
:100690000E942301C20104C02C2D2A95F1F7019676
:1006A00080349105C8F38CE291E00197F1F70F5F78
:1006B0001F4F8091440190E00817190718F4C4E413
:1006C000D1E0D3CFDF91CF911F910F91FF90EF90A9
:1006D000DF90CF90BF90AF909F908F907F906F9062
:1006E0005F904F903F902F9008952F923F924F929E
:1006F0005F926F927F928F929F92AF92BF92CF92B2
:10070000DF92EF92FF920F931F93DF93CF9300D06E
:1007100000D0CDB7DEB7982EA62EB42E79018093E7
:100720004401861710F460934401809144018B15B5
:1007300010F4B092440100E010E0892D90E09A831B
:1007400089832A2C33244B2C55245FE3C52ED12CCE
:10075000CE18DF084CC0892D6A2D4B2D0E94230135
:100760000894611C711C6E147F04A8F3202FE9818A
:10077000FA81E017F10708F42E2F622E602F201661
:10078000310608F4622D862E402F4016510608F4DB
:10079000442D742E862D682D0E942301FC82EB824D
:1007A00005C080E060E040E00E9423018B819C81D5
:1007B00001969C838B838C159D0598F3862D682D5F
:1007C000472D0E9423016624772408C0892D6A2DB5
:1007D0004B2D0E9423010894611C711C6E147F0430
:1007E000A8F38CE291E00197F1F70F5F1F4F809122
:1007F000440190E00817190718F466247724B3CF52
:100800000F900F900F900F90CF91DF911F910F914C
:10081000FF90EF90DF90CF90BF90AF909F908F9020
:100820007F906F905F904F903F902F900895AF9280
:10083000BF92CF92DF92EF92FF920F931F93CF93CD
:10084000DF93A82EB62ED42E65E4E62E61E0F62EB8
:100850008701015C1F4FC0E0D0E0CC24C3948A2DF7
:100860006B2D4D2D9E010E947503F701C1927F01F2
:10087000F801C082219601501040C032D10579F7AD
:10088000DF91CF911F910F91FF90EF90DF90CF906C
:10089000BF90AF9008952F923F924F925F926F92C8
:1008A0007F928F929F92BF92CF92DF92EF92FF92B0
:1008B0000F931F93DF93CF93CDB7DEB728970FB673
:1008C000F894DEBF0FBECDBFB82EC62ED42E490180
:1008D00080934401861710F4609344018091440191
:1008E0008D1510F4D092440120914401822F90E0A4
:1008F00087709070009719F0281B20934401809115
:100900004401082F10E0EE24FF2494012C5B3E4F9D
:100910003A8329831C830B838B2D90E09E838D83E8
:100920002C2C33244D2C5524C801887F90700896B8
:1009300066247724681A790A54C0EF81F88581818A
:10094000882321F08B2D6C2D4D2D03C080E060E0BD
:1009500040E00E9423012F8138852F5F3F4F388769
:100960002F838F819885E981FA818E179F0729F758
:100970002B813C812E0D3F1D8D819E818217930717
:1009800014F48B2D01C0802F2216330614F46C2D25
:1009900001C0602F4216530614F44D2D01C0402FA4
:1009A0000E94230198868F820AC080E060E040E0C8
:1009B0000E942301EF81F8853196F887EF832F811C
:1009C00038852134310588F38CE291E00197F1F705
:1009D0000850104088EF9FEFE80EF91EE614F70468
:1009E00029F0E4E4F1E0F887EF83BBCF28960FB657
:1009F000F894DEBF0FBECDBFCF91DF911F910F9155
:100A0000FF90EF90DF90CF90BF909F908F907F905E
:100A10006F905F904F903F902F900895DF92EF92EC
:100A2000FF920F931F93CF93DF93D82EE62EF42ED1
:100A300004E811E0CFE3D0E08D2D6E2D4F2D9E0107
:100A40000E944B04F8011082219701501040FFEFE3
:100A5000CF3FDF0789F7DF91CF911F910F91FF9073
:100A6000EF90DF900895DF92EF92FF920F931F9324
:100A7000CF93DF93D82EE62EF42E04E811E0CFE3D7
:100A8000D0E08D2D6E2D4F2D9E010E944B04F8015C
:100A90001082219701501040FFEFCF3FDF0789F709
:100AA000DF91CF911F910F91FF90EF90DF9008950C
:100AB0002F923F924F925F926F927F928F929F926E
:100AC000AF92BF92DF92EF92FF920F931F93DF934B
:100AD000CF9300D000D0CDB7DEB7D82EE62EF42EBF
:100AE000290180934401861710F46093440180919A
:100AF00044018F1510F4F092440120914401822F9B
:100B000090E087709070009719F0281B20934401A3
:100B10008091440163E00E941A0A282F30E03A8352
:100B2000298300E010E074E4272E71E0372E240CB6
:100B3000351C6D2C77248E2C9924AF2CBB2443C0FC
:100B4000EB81FC818181882321F08D2D6E2D4F2D2D
:100B500003C080E060E040E00E9423012B813C81E3
:100B60002F5F3F4F3C832B838B819C8182159305A4
:100B700039F7202F6016710608F4262D602F801695
:100B8000910608F4682D402FA016B10608F44A2DEE
:100B9000822F0E9423015C824B820AC080E060E0C9
:100BA00040E00E942301EB81FC813196FC83EB83C2
:100BB0002B813C812134310588F38CE291E001974F
:100BC000F1F7085F1F4F89819A810817190728F4E8
:100BD000E4E4F1E0FC83EB83C7CF0F900F900F901C
:100BE0000F90CF91DF911F910F91FF90EF90DF90C9
:100BF000BF90AF909F908F907F906F905F904F903D
:100C00003F902F900895CF92DF92EF92FF920F9333
:100C10001F93CF93DF93D82EE62EF42E05E411E038
:100C2000C0E0D0E0CC24C3948D2D6E2D4F2D9E01BD
:100C30000E945805F801C1928F012196C034D10558
:100C400099F7DF91CF911F910F91FF90EF90DF9077
:100C5000CF900895CF93DF93C0E0D0E080E060E0D4
:100C600040E00E942301219681E0CC32D807B1F701
:100C7000DF91CF9108958FEF8093360182E08093CA
:100C8000390180933A0180933B0188EE93E02CE296
:100C900031E0F9013197F1F70197D9F70E942A065F
:100CA00088EE93E02CE231E0F9013197F1F70197FA
:100CB000D9F7E5E4F1E0119281E0E538F807D9F7DA
:100CC0000895109285011092860181E0809387013A
:100CD00080E090E0FC01EB57FE4F138201968032DA
:100CE0009105C1F71092A801E9EAF1E0119281E0C3
:100CF000E13BF807D9F71082089514BC15BC109297
:100D00006E008FEF85BBE8E6F0E080818260808333
:100D1000ECE6F0E0808180648083D99A789408952D
:100D20008FEF85BBEEE6F0E0108288EC86BD84E0B4
:100D300085BD81E085BB8083089510926E0015BC4F
:100D400016BC0895549A5C9A3E98469A08955C9A07
:100D500008955C980895813011F45C9A08955C9828
:100D6000089586B190E026E0969587952A95E1F75B
:100D7000817008959C0116BC81E085BD86B58233E3
:100D8000E8F316BC86B590E082179307D8F315BC3C
:100D9000089580912C0190912D010E94BA0608952A
:100DA00080912E0190912F010E94BA0608958091A2
:100DB0003001909131010E94BA060895DF92EF92BE
:100DC000FF920F931F93DF93CF93CDB7DEB72A9790
:100DD0000FB6F894DEBF0FBECDBFFE0131969AE08C
:100DE000DF011D929A95E9F791E09A87FE0132960C
:100DF00020E030E0482F50E061E0CA01022E02C03E
:100E0000959587950A94E2F780FF02C0608301C040
:100E100010822F5F3F4F31962830310571F7DFB6D2
:100E2000F8948E010F5F1F4F3BE0E32EF12CEC0E88
:100E3000FD1EF8018081813011F45C9A01C05C983C
:100E40000E94C9060F5F1F4F0E151F0591F7DFBEE9
:100E50002A960FB6F894DEBF0FBECDBFCF91DF91BB
:100E60001F910F91FF90EF90DF900895FF920F93E5
:100E70001F93369B21C082E017C00E94D00636998E
:100E80000068173009F006951F5F1830B1F70E940F
:100E9000D00686B1F6FC07C086FF05C00093860128
:100EA0001092850103C081E08093850180918601C5
:100EB0001F910F91FF9008950E94D706F6B000E0B1
:100EC00010E0DBCF8091860108951092860108958D
:100ED000809386010895BF92CF92DF92EF92FF92A6
:100EE0000F931F93CF93DF937B018C018FEFE81655
:100EF000F1040105110509F030F4C8E0D0E062E02A
:100F0000C62ED12C14C080E0E81680E0F80681E0FF
:100F1000080780E0180730F0C0E2D0E058E0C52EA6
:100F2000D12C05C0C0E1D0E044E0C42ED12C80E338
:100F30000E94DE0688E70E94DE06BB2417C02497C5
:100F4000D801C7010C2E04C0B695A7959795879533
:100F50000A94D2F790E08F7090708A30910510F06B
:100F6000C79601C0C0960E94DE06B3948B2D90E018
:100F70008C159D0520F3DF91CF911F910F91FF906C
:100F8000EF90DF90CF90BF900895AF92BF92CF9235
:100F9000DF92EF92FF920F931F93CF93DF937B012A
:100FA0008C016F3F71058105910509F018F4F7E098
:100FB000DF2E0DC0603030E0730731E0830730E092
:100FC000930718F0EFE1DE2E02C07FE0D72E80E31A
:100FD0000E94DE0682E60E94DE06C0E0D0E0CD2C54
:100FE000DD2456010894A11CB11CC6018C1B9D0B6D
:100FF000A801970104C056954795379527958A957E
:10100000D2F7DA01C90181709070892B11F081E368
:1010100001C080E30E94DE062196CA15DB0529F790
:10102000DF91CF911F910F91FF90EF90DF90CF90C4
:10103000BF90AF9008958DE00E94DE068AE00E9486
:10104000DE06089580E20E94DE0608958CE20E948A
:10105000DE0608951F93CF93DF93EC0110E003C0E9
:101060000E94DE061F5FFE01E10FF11D80818823D3
:10107000B9F7DF91CF911F9108950E942A080E942D
:101080001B0808950E942A080E94220808950E94C1
:101090002A080E9426080895BF92CF92DF92EF920D
:1010A000FF920F931F936B017C0161157105810500
:1010B000910531F41092A90181E08093B10123C020
:1010C000BB240B2D10E00B571E4FC701B6012AE0C1
:1010D00030E040E050E00E94260AF80164A3C70116
:1010E000B6012AE030E040E050E00E94260AC90143
:1010F000DA016C017D01B394C114D104E104F1045F
:1011000001F7B092B1011F910F91FF90EF90DF9026
:10111000CF90BF9008951F931091B10109C0115055
:10112000E12FF0E0EB57FE4F84A1805D0E94DE06C8
:101130001123A9F71F910895EF92FF920F931F9328
:101140007B018C0197FF0BC08DE20E94DE0610959B
:101150000095F094E094E11CF11C011D111DC801E3
:10116000B7010E944C080E948B081F910F91FF90BD
:10117000EF9008950E949C080E941B0808950E9409
:101180009C080E94220808950E949C088EE191E02C
:101190000E942A0808950E946B070E941B08089568
:1011A0000E946B070E94220808950E946B078EE13F
:1011B00091E00E942A0808950E94C5070E941B081A
:1011C00008950E94C5070E94220808950E94C5073D
:1011D0008EE191E00E942A080895EF92FF920F930A
:1011E0001F937A018B010E942A080E942208C801DD
:1011F000B7010E94BA081F910F91FF90EF900895D8
:10120000EF92FF920F931F937A018B010E942A089D
:101210000E942208C801B7010E94BF081F910F91C8
:10122000FF90EF900895EF92FF920F931F937A0132
:101230008B010E942A080E942208C801B7010E945F
:10124000C4081F910F91FF90EF900895EF92FF92C5
:101250000F931F937A018B010E942A080E94220893
:10126000C801B7010E94CB081F910F91FF90EF902A
:101270000895EF92FF920F931F937A018B010E94C2
:101280002A080E942208C801B7010E94D0081F91B5
:101290000F91FF90EF900895EF92FF920F931F939D
:1012A0007A018B010E942A080E942208C801B70116
:1012B0000E94D5081F910F91FF90EF900895EF9233
:1012C000FF920F931F937A018B010E942A080E94BC
:1012D0002208C801B7010E94DC081F910F91FF90FE
:1012E000EF900895EF92FF920F931F937A018B0175
:1012F0000E942A080E942208C801B7010E94E10842
:101300001F910F91FF90EF900895EF92FF920F932E
:101310001F937A018B010E942A080E942208C801AB
:10132000B7010E94E6081F910F91FF90EF9008957A
:10133000E5E8F1E0E80FF11D838108958091A801AF
:10134000089580E090E0FC01EB57FE4F1382019678
:1013500080329105C1F71092A8010895809187010C
:10136000089580918701882311F090E008C0809152
:10137000A80190E0882309F491E081E09827892F63
:1013800008958091A80108950E9461060E947D063B
:101390000E94A20608951F920F920FB60F92112479
:1013A0002F933F934F935F936F937F938F939F936D
:1013B000AF93BF93EF93FF9381E0809387010E94E7
:1013C0003607982F80918501882399F4E091A80130
:1013D000F0E0EB57FE4F93838091A8018F5F8093DD
:1013E000A8018091A801813210F01092A8010E94FA
:1013F0009006FF91EF91BF91AF919F918F917F9157
:101400006F915F914F913F912F910F900FBE0F9071
:101410001F9018951F920F920FB60F9211241092E1
:101420006E0015BC16BC109287010F900FBE0F9076
:101430001F901895991B79E004C0991F961708F022
:10144000961B881F7A95C9F780950895A1E21A2EF8
:10145000AA1BBB1BFD010DC0AA1FBB1FEE1FFF1F58
:10146000A217B307E407F50720F0A21BB30BE40BA8
:10147000F50B661F771F881F991F1A9469F76095EF
:101480007095809590959B01AC01BD01CF010895A9
:04149000F894FFCFFE
:10149400FED70066CC00739BD03333FEB266FE00E9
:1014A40010200010200010200010200010202C001C
:1014B400CE049C044E024E023A02E600C800D2005A
:0214C400140012
:00000001FF
